{
  "contractName": "CipaCoins",
  "abi": [
    {
      "inputs": [],
      "payable": false,
      "stateMutability": "nonpayable",
      "type": "constructor"
    },
    {
      "constant": true,
      "inputs": [
        {
          "internalType": "uint256",
          "name": "",
          "type": "uint256"
        }
      ],
      "name": "clubs",
      "outputs": [
        {
          "internalType": "bytes32",
          "name": "name",
          "type": "bytes32"
        },
        {
          "internalType": "address",
          "name": "pres",
          "type": "address"
        },
        {
          "internalType": "uint256",
          "name": "cipaClubBalance",
          "type": "uint256"
        }
      ],
      "payable": false,
      "stateMutability": "view",
      "type": "function"
    },
    {
      "constant": true,
      "inputs": [],
      "name": "directionDesEtudes",
      "outputs": [
        {
          "internalType": "address",
          "name": "",
          "type": "address"
        }
      ],
      "payable": false,
      "stateMutability": "view",
      "type": "function"
    },
    {
      "constant": true,
      "inputs": [
        {
          "internalType": "address",
          "name": "",
          "type": "address"
        }
      ],
      "name": "eleves",
      "outputs": [
        {
          "internalType": "address",
          "name": "eleve",
          "type": "address"
        },
        {
          "internalType": "uint256",
          "name": "cipaStudentBalance",
          "type": "uint256"
        },
        {
          "internalType": "bool",
          "name": "certificat",
          "type": "bool"
        }
      ],
      "payable": false,
      "stateMutability": "view",
      "type": "function"
    },
    {
      "constant": false,
      "inputs": [
        {
          "internalType": "address",
          "name": "student",
          "type": "address"
        },
        {
          "internalType": "uint256",
          "name": "amount",
          "type": "uint256"
        }
      ],
      "name": "sendCipaStudentToStudent",
      "outputs": [],
      "payable": false,
      "stateMutability": "nonpayable",
      "type": "function"
    },
    {
      "constant": false,
      "inputs": [
        {
          "internalType": "uint256",
          "name": "amount",
          "type": "uint256"
        },
        {
          "internalType": "uint256",
          "name": "clubInt",
          "type": "uint256"
        }
      ],
      "name": "sendCipaDirToClub",
      "outputs": [],
      "payable": false,
      "stateMutability": "nonpayable",
      "type": "function"
    },
    {
      "constant": false,
      "inputs": [
        {
          "internalType": "address",
          "name": "student",
          "type": "address"
        },
        {
          "internalType": "uint256",
          "name": "amount",
          "type": "uint256"
        },
        {
          "internalType": "uint256",
          "name": "clubInt",
          "type": "uint256"
        }
      ],
      "name": "sendCipaClubToStudent",
      "outputs": [],
      "payable": false,
      "stateMutability": "nonpayable",
      "type": "function"
    },
    {
      "constant": false,
      "inputs": [
        {
          "internalType": "address",
          "name": "president",
          "type": "address"
        },
        {
          "internalType": "bytes32",
          "name": "name",
          "type": "bytes32"
        }
      ],
      "name": "createClub",
      "outputs": [],
      "payable": false,
      "stateMutability": "nonpayable",
      "type": "function"
    },
    {
      "constant": false,
      "inputs": [],
      "name": "validateCipa",
      "outputs": [],
      "payable": false,
      "stateMutability": "nonpayable",
      "type": "function"
    },
    {
      "constant": false,
      "inputs": [
        {
          "internalType": "address",
          "name": "newPres",
          "type": "address"
        },
        {
          "internalType": "uint256",
          "name": "clubInt",
          "type": "uint256"
        }
      ],
      "name": "makePres",
      "outputs": [],
      "payable": false,
      "stateMutability": "nonpayable",
      "type": "function"
    }
  ],
  "bytecode": "0x608060405234801561001057600080fd5b50336000806101000a81548173ffffffffffffffffffffffffffffffffffffffff021916908373ffffffffffffffffffffffffffffffffffffffff1602179055506111a4806100606000396000f3fe608060405234801561001057600080fd5b50600436106100935760003560e01c80636b5e317a116100665780636b5e317a146101d05780637fb8df7d1461021e5780639cc009c114610276578063ae566e4c146102f2578063d137251a1461032a57610093565b80631c52e9e614610098578063297687901461012e578063391c22991461017857806354dc858414610182575b600080fd5b6100da600480360360208110156100ae57600080fd5b81019080803573ffffffffffffffffffffffffffffffffffffffff169060200190929190505050610378565b604051808473ffffffffffffffffffffffffffffffffffffffff1673ffffffffffffffffffffffffffffffffffffffff16815260200183815260200182151515158152602001935050505060405180910390f35b6101366103cf565b604051808273ffffffffffffffffffffffffffffffffffffffff1673ffffffffffffffffffffffffffffffffffffffff16815260200191505060405180910390f35b6101806103f4565b005b6101ce6004803603604081101561019857600080fd5b81019080803573ffffffffffffffffffffffffffffffffffffffff169060200190929190803590602001909291905050506105dc565b005b61021c600480360360408110156101e657600080fd5b81019080803573ffffffffffffffffffffffffffffffffffffffff169060200190929190803590602001909291905050506107c0565b005b6102746004803603606081101561023457600080fd5b81019080803573ffffffffffffffffffffffffffffffffffffffff1690602001909291908035906020019092919080359060200190929190505050610940565b005b6102a26004803603602081101561028c57600080fd5b8101908080359060200190929190505050610c1a565b604051808481526020018373ffffffffffffffffffffffffffffffffffffffff1673ffffffffffffffffffffffffffffffffffffffff168152602001828152602001935050505060405180910390f35b6103286004803603604081101561030857600080fd5b810190808035906020019092919080359060200190929190505050610c71565b005b6103766004803603604081101561034057600080fd5b81019080803573ffffffffffffffffffffffffffffffffffffffff16906020019092919080359060200190929190505050610dc1565b005b60026020528060005260406000206000915090508060000160009054906101000a900473ffffffffffffffffffffffffffffffffffffffff16908060010154908060020160009054906101000a900460ff16905083565b6000809054906101000a900473ffffffffffffffffffffffffffffffffffffffff1681565b600260003373ffffffffffffffffffffffffffffffffffffffff1673ffffffffffffffffffffffffffffffffffffffff16815260200190815260200160002060020160009054906101000a900460ff161561049a576040517f08c379a000000000000000000000000000000000000000000000000000000000815260040180806020018281038252602c815260200180611144602c913960400191505060405180910390fd5b600154600260003373ffffffffffffffffffffffffffffffffffffffff1673ffffffffffffffffffffffffffffffffffffffff168152602001908152602001600020600101541015610537576040517f08c379a00000000000000000000000000000000000000000000000000000000081526004018080602001828103825260278152602001806110eb6027913960400191505060405180910390fd5b6001600260003373ffffffffffffffffffffffffffffffffffffffff1673ffffffffffffffffffffffffffffffffffffffff16815260200190815260200160002060020160006101000a81548160ff0219169083151502179055506000600260003373ffffffffffffffffffffffffffffffffffffffff1673ffffffffffffffffffffffffffffffffffffffff16815260200190815260200160002060010181905550565b80600260003373ffffffffffffffffffffffffffffffffffffffff1673ffffffffffffffffffffffffffffffffffffffff1681526020019081526020016000206001015411610676576040517f08c379a00000000000000000000000000000000000000000000000000000000081526004018080602001828103825260278152602001806110c46027913960400191505060405180910390fd5b600260008373ffffffffffffffffffffffffffffffffffffffff1673ffffffffffffffffffffffffffffffffffffffff16815260200190815260200160002060020160009054906101000a900460ff161561071c576040517f08c379a000000000000000000000000000000000000000000000000000000000815260040180806020018281038252602681526020018061106c6026913960400191505060405180910390fd5b80600260008473ffffffffffffffffffffffffffffffffffffffff1673ffffffffffffffffffffffffffffffffffffffff1681526020019081526020016000206001016000828254019250508190555080600260003373ffffffffffffffffffffffffffffffffffffffff1673ffffffffffffffffffffffffffffffffffffffff168152602001908152602001600020600101600082825403925050819055505050565b6000809054906101000a900473ffffffffffffffffffffffffffffffffffffffff1673ffffffffffffffffffffffffffffffffffffffff163373ffffffffffffffffffffffffffffffffffffffff1614610865576040517f08c379a00000000000000000000000000000000000000000000000000000000081526004018080602001828103825260378152602001806110356037913960400191505060405180910390fd5b60038054905081106108df576040517f08c379a00000000000000000000000000000000000000000000000000000000081526004018080602001828103825260188152602001807f4c6520636c7562206e276573742070617320636f6e6e752e000000000000000081525060200191505060405180910390fd5b81600382815481106108ed57fe5b906000526020600020906003020160010160006101000a81548173ffffffffffffffffffffffffffffffffffffffff021916908373ffffffffffffffffffffffffffffffffffffffff1602179055505050565b6003805490508110156109bb576040517f08c379a00000000000000000000000000000000000000000000000000000000081526004018080602001828103825260188152602001807f4c6520636c7562206e276573742070617320636f6e6e752e000000000000000081525060200191505060405180910390fd5b600381815481106109c857fe5b906000526020600020906003020160010160009054906101000a900473ffffffffffffffffffffffffffffffffffffffff1673ffffffffffffffffffffffffffffffffffffffff163373ffffffffffffffffffffffffffffffffffffffff1614610a7d576040517f08c379a0000000000000000000000000000000000000000000000000000000008152600401808060200182810382526027815260200180610fe76027913960400191505060405180910390fd5b8160038281548110610a8b57fe5b90600052602060002090600302016002015411610af3576040517f08c379a000000000000000000000000000000000000000000000000000000000815260040180806020018281038252602781526020018061100e6027913960400191505060405180910390fd5b600260008473ffffffffffffffffffffffffffffffffffffffff1673ffffffffffffffffffffffffffffffffffffffff16815260200190815260200160002060020160009054906101000a900460ff1615610b99576040517f08c379a000000000000000000000000000000000000000000000000000000000815260040180806020018281038252602681526020018061106c6026913960400191505060405180910390fd5b81600260008573ffffffffffffffffffffffffffffffffffffffff1673ffffffffffffffffffffffffffffffffffffffff168152602001908152602001600020600101600082825401925050819055508160038281548110610bf757fe5b906000526020600020906003020160020160008282540392505081905550505050565b60038181548110610c2757fe5b90600052602060002090600302016000915090508060000154908060010160009054906101000a900473ffffffffffffffffffffffffffffffffffffffff16908060020154905083565b6000809054906101000a900473ffffffffffffffffffffffffffffffffffffffff1673ffffffffffffffffffffffffffffffffffffffff163373ffffffffffffffffffffffffffffffffffffffff1614610d16576040517f08c379a00000000000000000000000000000000000000000000000000000000081526004018080602001828103825260328152602001806111126032913960400191505060405180910390fd5b600380549050811015610d91576040517f08c379a00000000000000000000000000000000000000000000000000000000081526004018080602001828103825260188152602001807f4c6520636c7562206e276573742070617320636f6e6e752e000000000000000081525060200191505060405180910390fd5b8160038281548110610d9f57fe5b9060005260206000209060030201600201600082825401925050819055505050565b6000809054906101000a900473ffffffffffffffffffffffffffffffffffffffff1673ffffffffffffffffffffffffffffffffffffffff163373ffffffffffffffffffffffffffffffffffffffff1614610e66576040517f08c379a00000000000000000000000000000000000000000000000000000000081526004018080602001828103825260328152602001806110926032913960400191505060405180910390fd5b600080905060008090505b600380549050811015610eaf578260038281548110610e8c57fe5b906000526020600020906003020160000154141591508080600101915050610e71565b508015610f24576040517f08c379a00000000000000000000000000000000000000000000000000000000081526004018080602001828103825260148152602001807f4c6520636c7562206578697374652064656a612e00000000000000000000000081525060200191505060405180910390fd5b600360405180606001604052808481526020018573ffffffffffffffffffffffffffffffffffffffff1681526020016000815250908060018154018082558091505090600182039060005260206000209060030201600090919290919091506000820151816000015560208201518160010160006101000a81548173ffffffffffffffffffffffffffffffffffffffff021916908373ffffffffffffffffffffffffffffffffffffffff1602179055506040820151816002015550505050505056fe4c27656e766f79657572206e276573742070617320707265736964656e7420647520636c75622e4c6520636c756220656e766f79657572206e27612070617320617373657a20646520434950412e5365756c65206c6120646972656374696f6e20646573206574756465732070657574206e6f6d6d657220756e20707265736964656e742e4c27656c65766520726563657665757220612064656a6120617373657a20646520434950412e5365756c65206c6120646972656374696f6e206465732065747564657320706575742063726565722064657320636c7562734c27656c65766520656e766f79657572206e27612070617320617373657a20646520434950412e4c276574756469616e74206e27612070617320617373657a20646520706f696e7420434950412e5365756c65206c6120646972656374696f6e206465732065747564657320706575742063726565722064657320434950412e4c276574756469616e7420612064656a612076616c69646520736f6e20636572746966696361742043495041a265627a7a723158206e01d7ba4d173e33019638211065dbc202da4e23160d357794b5785510a11fc164736f6c63430005100032",
  "source": "// SPDX-License-Identifier: MIT\r\npragma solidity >=0.4.22 <0.9.0;\r\n\r\ncontract CipaCoins {\r\n    struct Club {\r\n        bytes32 name;\r\n        address pres;\r\n        uint256 cipaClubBalance;\r\n    }\r\n\r\n    struct Eleve {\r\n        address eleve;\r\n        uint256 cipaStudentBalance;\r\n        bool certificat;\r\n    }\r\n\r\n    address public directionDesEtudes;\r\n\r\n    uint256 cipaThreashHold;\r\n\r\n    mapping(address => Eleve) public eleves;\r\n\r\n    Club[] public clubs;\r\n\r\n    constructor() public {\r\n        directionDesEtudes = msg.sender;\r\n    }\r\n\r\n    function sendCipaStudentToStudent(address student, uint256 amount) public {\r\n        require(\r\n            eleves[msg.sender].cipaStudentBalance > amount,\r\n            \"L'eleve envoyeur n'a pas assez de CIPA.\"\r\n        );\r\n\r\n        require(\r\n            !eleves[student].certificat,\r\n            \"L'eleve receveur a deja assez de CIPA.\"\r\n        );\r\n\r\n        eleves[student].cipaStudentBalance += amount;\r\n        eleves[msg.sender].cipaStudentBalance -= amount;\r\n    }\r\n\r\n    function sendCipaDirToClub(uint256 amount, uint256 clubInt) public {\r\n        require(\r\n            msg.sender == directionDesEtudes,\r\n            \"Seule la direction des etudes peut creer des CIPA.\"\r\n        );\r\n\r\n        require(clubInt >= clubs.length, \"Le club n'est pas connu.\");\r\n\r\n        clubs[clubInt].cipaClubBalance += amount;\r\n    }\r\n\r\n    function sendCipaClubToStudent(\r\n        address student,\r\n        uint256 amount,\r\n        uint256 clubInt\r\n    ) public {\r\n        require(clubInt >= clubs.length, \"Le club n'est pas connu.\");\r\n\r\n        require(\r\n            msg.sender == clubs[clubInt].pres,\r\n            \"L'envoyeur n'est pas president du club.\"\r\n        );\r\n\r\n        require(\r\n            clubs[clubInt].cipaClubBalance > amount,\r\n            \"Le club envoyeur n'a pas assez de CIPA.\"\r\n        );\r\n\r\n        require(\r\n            !eleves[student].certificat,\r\n            \"L'eleve receveur a deja assez de CIPA.\"\r\n        );\r\n\r\n        eleves[student].cipaStudentBalance += amount;\r\n        clubs[clubInt].cipaClubBalance -= amount;\r\n    }\r\n\r\n    function createClub(address president, bytes32 name) public {\r\n        require(\r\n            msg.sender == directionDesEtudes,\r\n            \"Seule la direction des etudes peut creer des clubs\"\r\n        );\r\n\r\n        bool alreadyExists = false;\r\n        for (uint256 i = 0; i < clubs.length; i++) {\r\n            alreadyExists = (clubs[i].name != name);\r\n        }\r\n\r\n        require(!alreadyExists, \"Le club existe deja.\");\r\n\r\n        clubs.push(Club({name: name, pres: president, cipaClubBalance: 0}));\r\n    }\r\n\r\n    function validateCipa() public {\r\n        require(\r\n            !eleves[msg.sender].certificat,\r\n            \"L'etudiant a deja valide son certificat CIPA\"\r\n        );\r\n\r\n        require(\r\n            eleves[msg.sender].cipaStudentBalance >= cipaThreashHold,\r\n            \"L'etudiant n'a pas assez de point CIPA.\"\r\n        );\r\n\r\n        eleves[msg.sender].certificat = true;\r\n        eleves[msg.sender].cipaStudentBalance = 0;\r\n    }\r\n\r\n    function makePres(address newPres, uint256 clubInt) public {\r\n        require(\r\n            msg.sender == directionDesEtudes,\r\n            \"Seule la direction des etudes peut nommer un president.\"\r\n        );\r\n\r\n        require(clubInt < clubs.length, \"Le club n'est pas connu.\");\r\n\r\n        clubs[clubInt].pres = newPres;\r\n    }\r\n}\r\n",
  "sourcePath": "C:/Users/marie/Documents/blockchain_2a/contracts/CipaCoins.sol",
  "compiler": {
    "name": "solc",
    "version": "0.5.16+commit.9c3226ce.Emscripten.clang"
  },
  "schemaVersion": "3.3.4",
  "updatedAt": "2021-03-19T09:21:28.049Z",
  "devdoc": {
    "methods": {}
  },
  "userdoc": {
    "methods": {}
  }
}